:060000000A128A1100291A
:10000800F000030EF1008C180E20710E8300F00E24
:10001800700E090001308906031383128C10080042
:10020000072113211A21252103138312062903171D
:10021000831688018901031383168901031383124E
:10022000013089000800031383160F138F160F1671
:100230000F140800031383128B170B170313831675
:100240008C14031383128C100800031383121217EB
:0C02500092161216921512159214080056
:04400E00D420FF3F7C
:00000001FF
