:060000000A128A1100291A
:10000800F000030EF1000C180E20710E8300F00EA4
:10001800700E0900A00A031383120B308F00DC3026
:060028008E000C10080020
:10020000092114211B2126210313831220088500B4
:1002100006290317831688018901031383168501B4
:100220000313831285010800031383160F178F121F
:100230000F120F140800031383128B170B170313ED
:1002400083160C14031383120C100800031383127B
:0C0250009016101290119010101408006D
:04400E00D420FF3F7C
:00000001FF
