:060000000A128A11142906
:10000800F000030EF1000C1824200B1912208C1894
:100018002D20710E8300F00E700E09000313831259
:10002800833081000B110630890689181E280919AA
:1000380021280800210887000800220887000800F6
:10004800A00A031383120B308F00DC308E000C10D3
:0E005800080001308906031383128C10080083
:100200008A010A140F3982073F3406345B344F34B5
:1002100066346D347D3407347F34673477347C340E
:1002200039345E3479347134212131213821472128
:100230005421622103138312200885007221772143
:100240001C2903178316880189010313831685016E
:100250008701890103138312870185010330890017
:100260000800031383160F138F160F160F140800C0
:10027000031383128B170B178B16031383160C149F
:100280008C14031383120B110C108C100800031331
:100290008316811281110115811401100313831239
:1002A000833081000B110800031383121014901087
:1002B00090121016031383120B308F00DC308E0067
:1002C0000C100800031383121215921412179216C1
:1002D0001216921503138316F4309200031383123F
:1002E0008C100800643020020319A00108002008C7
:1002F000A600A701A70A0A30A60203187A29270335
:10030000A4000A302607A50024080021A100250822
:060310000021A20008001C
:04400E00D420FF3F7C
:00000001FF
